{
  "contractName": "BlockCapsule",
  "abi": [
    {
      "inputs": [
        {
          "internalType": "address",
          "name": "_user",
          "type": "address"
        },
        {
          "internalType": "string",
          "name": "url",
          "type": "string"
        }
      ],
      "name": "add",
      "outputs": [],
      "stateMutability": "nonpayable",
      "type": "function"
    },
    {
      "inputs": [
        {
          "internalType": "address",
          "name": "_user",
          "type": "address"
        }
      ],
      "name": "verify",
      "outputs": [],
      "stateMutability": "nonpayable",
      "type": "function"
    },
    {
      "inputs": [
        {
          "internalType": "address",
          "name": "_user",
          "type": "address"
        }
      ],
      "name": "isVerified",
      "outputs": [
        {
          "internalType": "string",
          "name": "",
          "type": "string"
        }
      ],
      "stateMutability": "view",
      "type": "function",
      "constant": true
    },
    {
      "inputs": [
        {
          "internalType": "address",
          "name": "user",
          "type": "address"
        }
      ],
      "name": "allowView",
      "outputs": [],
      "stateMutability": "nonpayable",
      "type": "function"
    },
    {
      "inputs": [
        {
          "internalType": "address",
          "name": "user",
          "type": "address"
        }
      ],
      "name": "disAllowView",
      "outputs": [],
      "stateMutability": "nonpayable",
      "type": "function"
    },
    {
      "inputs": [
        {
          "internalType": "address",
          "name": "user",
          "type": "address"
        }
      ],
      "name": "allowEdit",
      "outputs": [],
      "stateMutability": "nonpayable",
      "type": "function"
    },
    {
      "inputs": [
        {
          "internalType": "address",
          "name": "user",
          "type": "address"
        }
      ],
      "name": "disAllowEdit",
      "outputs": [],
      "stateMutability": "nonpayable",
      "type": "function"
    },
    {
      "inputs": [
        {
          "internalType": "address",
          "name": "_user",
          "type": "address"
        }
      ],
      "name": "display",
      "outputs": [
        {
          "internalType": "string[]",
          "name": "",
          "type": "string[]"
        }
      ],
      "stateMutability": "view",
      "type": "function",
      "constant": true
    },
    {
      "inputs": [],
      "name": "viewShareAccess",
      "outputs": [
        {
          "components": [
            {
              "internalType": "address",
              "name": "user",
              "type": "address"
            },
            {
              "internalType": "bool",
              "name": "access",
              "type": "bool"
            }
          ],
          "internalType": "struct BlockCapsule.access[]",
          "name": "",
          "type": "tuple[]"
        }
      ],
      "stateMutability": "view",
      "type": "function",
      "constant": true
    },
    {
      "inputs": [],
      "name": "editShareAccess",
      "outputs": [
        {
          "components": [
            {
              "internalType": "address",
              "name": "user",
              "type": "address"
            },
            {
              "internalType": "bool",
              "name": "access",
              "type": "bool"
            }
          ],
          "internalType": "struct BlockCapsule.access[]",
          "name": "",
          "type": "tuple[]"
        }
      ],
      "stateMutability": "view",
      "type": "function",
      "constant": true
    },
    {
      "inputs": [
        {
          "internalType": "address",
          "name": "_user",
          "type": "address"
        }
      ],
      "name": "isEditAllowed",
      "outputs": [
        {
          "internalType": "string",
          "name": "",
          "type": "string"
        }
      ],
      "stateMutability": "view",
      "type": "function",
      "constant": true
    },
    {
      "inputs": [
        {
          "internalType": "address",
          "name": "_user",
          "type": "address"
        }
      ],
      "name": "isViewAllowed",
      "outputs": [
        {
          "internalType": "string",
          "name": "",
          "type": "string"
        }
      ],
      "stateMutability": "view",
      "type": "function",
      "constant": true
    }
  ],
  "bytecode": "0x608060405234801561001057600080fd5b506120cf806100206000396000f3fe608060405234801561001057600080fd5b50600436106100b45760003560e01c806363a9c3d71161007157806363a9c3d7146101795780637b020d511461019557806390946f4c146101b1578063b9209e33146101e1578063eb39113f14610211578063f4c9ba5514610241576100b4565b806316c66e36146100b95780631c642fec146100e957806334bee8071461010757806336d6da55146101255780633fc4368914610141578063554de7941461015d575b600080fd5b6100d360048036038101906100ce91906117d7565b61025d565b6040516100e09190611894565b60405180910390f35b6100f1610369565b6040516100fe91906119be565b60405180910390f35b61010f610472565b60405161011c91906119be565b60405180910390f35b61013f600480360381019061013a9190611b15565b61057b565b005b61015b600480360381019061015691906117d7565b610648565b005b610177600480360381019061017291906117d7565b610a8f565b005b610193600480360381019061018e91906117d7565b610cb1565b005b6101af60048036038101906101aa91906117d7565b610d0b565b005b6101cb60048036038101906101c691906117d7565b610f2d565b6040516101d89190611894565b60405180910390f35b6101fb60048036038101906101f691906117d7565b611039565b6040516102089190611894565b60405180910390f35b61022b600480360381019061022691906117d7565b611107565b6040516102389190611c7d565b60405180910390f35b61025b600480360381019061025691906117d7565b61131e565b005b6060600360008373ffffffffffffffffffffffffffffffffffffffff1673ffffffffffffffffffffffffffffffffffffffff16815260200190815260200160002060003373ffffffffffffffffffffffffffffffffffffffff1673ffffffffffffffffffffffffffffffffffffffff16815260200190815260200160002060009054906101000a900460ff161561032b576040518060400160405280600381526020017f59657300000000000000000000000000000000000000000000000000000000008152509050610364565b6040518060400160405280600281526020017f4e6f00000000000000000000000000000000000000000000000000000000000081525090505b919050565b6060600560003373ffffffffffffffffffffffffffffffffffffffff1673ffffffffffffffffffffffffffffffffffffffff168152602001908152602001600020805480602002602001604051908101604052809291908181526020016000905b82821015610469578382906000526020600020016040518060400160405290816000820160009054906101000a900473ffffffffffffffffffffffffffffffffffffffff1673ffffffffffffffffffffffffffffffffffffffff1673ffffffffffffffffffffffffffffffffffffffff1681526020016000820160149054906101000a900460ff161515151581525050815260200190600101906103ca565b50505050905090565b6060600460003373ffffffffffffffffffffffffffffffffffffffff1673ffffffffffffffffffffffffffffffffffffffff168152602001908152602001600020805480602002602001604051908101604052809291908181526020016000905b82821015610572578382906000526020600020016040518060400160405290816000820160009054906101000a900473ffffffffffffffffffffffffffffffffffffffff1673ffffffffffffffffffffffffffffffffffffffff1673ffffffffffffffffffffffffffffffffffffffff1681526020016000820160149054906101000a900460ff161515151581525050815260200190600101906104d3565b50505050905090565b600160008373ffffffffffffffffffffffffffffffffffffffff1673ffffffffffffffffffffffffffffffffffffffff168152602001908152602001600020819080600181540180825580915050600190039060005260206000200160009091909190915090816105ec9190611eb5565b5060008060008473ffffffffffffffffffffffffffffffffffffffff1673ffffffffffffffffffffffffffffffffffffffff16815260200190815260200160002060006101000a81548160ff0219169083151502179055505050565b6001600360003373ffffffffffffffffffffffffffffffffffffffff1673ffffffffffffffffffffffffffffffffffffffff16815260200190815260200160002060008373ffffffffffffffffffffffffffffffffffffffff1673ffffffffffffffffffffffffffffffffffffffff16815260200190815260200160002060006101000a81548160ff021916908315150217905550600760003373ffffffffffffffffffffffffffffffffffffffff1673ffffffffffffffffffffffffffffffffffffffff16815260200190815260200160002060008273ffffffffffffffffffffffffffffffffffffffff1673ffffffffffffffffffffffffffffffffffffffff16815260200190815260200160002060009054906101000a900460ff16156108fb5760005b600560003373ffffffffffffffffffffffffffffffffffffffff1673ffffffffffffffffffffffffffffffffffffffff168152602001908152602001600020805490508110156108f5578173ffffffffffffffffffffffffffffffffffffffff16600560003373ffffffffffffffffffffffffffffffffffffffff1673ffffffffffffffffffffffffffffffffffffffff168152602001908152602001600020828154811061082157610820611f87565b5b9060005260206000200160000160009054906101000a900473ffffffffffffffffffffffffffffffffffffffff1673ffffffffffffffffffffffffffffffffffffffff16036108e2576001600560003373ffffffffffffffffffffffffffffffffffffffff1673ffffffffffffffffffffffffffffffffffffffff16815260200190815260200160002082815481106108bd576108bc611f87565b5b9060005260206000200160000160146101000a81548160ff0219169083151502179055505b80806108ed90611fe5565b91505061076f565b50610a8c565b600560003373ffffffffffffffffffffffffffffffffffffffff1673ffffffffffffffffffffffffffffffffffffffff16815260200190815260200160002060405180604001604052808373ffffffffffffffffffffffffffffffffffffffff168152602001600115158152509080600181540180825580915050600190039060005260206000200160009091909190915060008201518160000160006101000a81548173ffffffffffffffffffffffffffffffffffffffff021916908373ffffffffffffffffffffffffffffffffffffffff16021790555060208201518160000160146101000a81548160ff02191690831515021790555050506001600760003373ffffffffffffffffffffffffffffffffffffffff1673ffffffffffffffffffffffffffffffffffffffff16815260200190815260200160002060008373ffffffffffffffffffffffffffffffffffffffff1673ffffffffffffffffffffffffffffffffffffffff16815260200190815260200160002060006101000a81548160ff0219169083151502179055505b50565b6000600260003373ffffffffffffffffffffffffffffffffffffffff1673ffffffffffffffffffffffffffffffffffffffff16815260200190815260200160002060008373ffffffffffffffffffffffffffffffffffffffff1673ffffffffffffffffffffffffffffffffffffffff16815260200190815260200160002060006101000a81548160ff02191690831515021790555060005b600460003373ffffffffffffffffffffffffffffffffffffffff1673ffffffffffffffffffffffffffffffffffffffff16815260200190815260200160002080549050811015610cad578173ffffffffffffffffffffffffffffffffffffffff16600460003373ffffffffffffffffffffffffffffffffffffffff1673ffffffffffffffffffffffffffffffffffffffff1681526020019081526020016000208281548110610bd957610bd8611f87565b5b9060005260206000200160000160009054906101000a900473ffffffffffffffffffffffffffffffffffffffff1673ffffffffffffffffffffffffffffffffffffffff1603610c9a576000600460003373ffffffffffffffffffffffffffffffffffffffff1673ffffffffffffffffffffffffffffffffffffffff1681526020019081526020016000208281548110610c7557610c74611f87565b5b9060005260206000200160000160146101000a81548160ff0219169083151502179055505b8080610ca590611fe5565b915050610b27565b5050565b60016000808373ffffffffffffffffffffffffffffffffffffffff1673ffffffffffffffffffffffffffffffffffffffff16815260200190815260200160002060006101000a81548160ff02191690831515021790555050565b6000600360003373ffffffffffffffffffffffffffffffffffffffff1673ffffffffffffffffffffffffffffffffffffffff16815260200190815260200160002060008373ffffffffffffffffffffffffffffffffffffffff1673ffffffffffffffffffffffffffffffffffffffff16815260200190815260200160002060006101000a81548160ff02191690831515021790555060005b600560003373ffffffffffffffffffffffffffffffffffffffff1673ffffffffffffffffffffffffffffffffffffffff16815260200190815260200160002080549050811015610f29578173ffffffffffffffffffffffffffffffffffffffff16600560003373ffffffffffffffffffffffffffffffffffffffff1673ffffffffffffffffffffffffffffffffffffffff1681526020019081526020016000208281548110610e5557610e54611f87565b5b9060005260206000200160000160009054906101000a900473ffffffffffffffffffffffffffffffffffffffff1673ffffffffffffffffffffffffffffffffffffffff1603610f16576000600560003373ffffffffffffffffffffffffffffffffffffffff1673ffffffffffffffffffffffffffffffffffffffff1681526020019081526020016000208281548110610ef157610ef0611f87565b5b9060005260206000200160000160146101000a81548160ff0219169083151502179055505b8080610f2190611fe5565b915050610da3565b5050565b6060600260008373ffffffffffffffffffffffffffffffffffffffff1673ffffffffffffffffffffffffffffffffffffffff16815260200190815260200160002060003373ffffffffffffffffffffffffffffffffffffffff1673ffffffffffffffffffffffffffffffffffffffff16815260200190815260200160002060009054906101000a900460ff1615610ffb576040518060400160405280600381526020017f59657300000000000000000000000000000000000000000000000000000000008152509050611034565b6040518060400160405280600281526020017f4e6f00000000000000000000000000000000000000000000000000000000000081525090505b919050565b60606000808373ffffffffffffffffffffffffffffffffffffffff1673ffffffffffffffffffffffffffffffffffffffff16815260200190815260200160002060009054906101000a900460ff16156110c9576040518060400160405280600381526020017f59657300000000000000000000000000000000000000000000000000000000008152509050611102565b6040518060400160405280600281526020017f4e6f00000000000000000000000000000000000000000000000000000000000081525090505b919050565b60603373ffffffffffffffffffffffffffffffffffffffff168273ffffffffffffffffffffffffffffffffffffffff1614806111c95750600260008373ffffffffffffffffffffffffffffffffffffffff1673ffffffffffffffffffffffffffffffffffffffff16815260200190815260200160002060003373ffffffffffffffffffffffffffffffffffffffff1673ffffffffffffffffffffffffffffffffffffffff16815260200190815260200160002060009054906101000a900460ff165b611208576040517f08c379a00000000000000000000000000000000000000000000000000000000081526004016111ff90612079565b60405180910390fd5b600160008373ffffffffffffffffffffffffffffffffffffffff1673ffffffffffffffffffffffffffffffffffffffff168152602001908152602001600020805480602002602001604051908101604052809291908181526020016000905b8282101561131357838290600052602060002001805461128690611cce565b80601f01602080910402602001604051908101604052809291908181526020018280546112b290611cce565b80156112ff5780601f106112d4576101008083540402835291602001916112ff565b820191906000526020600020905b8154815290600101906020018083116112e257829003601f168201915b505050505081526020019060010190611267565b505050509050919050565b6001600260003373ffffffffffffffffffffffffffffffffffffffff1673ffffffffffffffffffffffffffffffffffffffff16815260200190815260200160002060008373ffffffffffffffffffffffffffffffffffffffff1673ffffffffffffffffffffffffffffffffffffffff16815260200190815260200160002060006101000a81548160ff021916908315150217905550600660003373ffffffffffffffffffffffffffffffffffffffff1673ffffffffffffffffffffffffffffffffffffffff16815260200190815260200160002060008273ffffffffffffffffffffffffffffffffffffffff1673ffffffffffffffffffffffffffffffffffffffff16815260200190815260200160002060009054906101000a900460ff16156115d15760005b600460003373ffffffffffffffffffffffffffffffffffffffff1673ffffffffffffffffffffffffffffffffffffffff168152602001908152602001600020805490508110156115cb578173ffffffffffffffffffffffffffffffffffffffff16600460003373ffffffffffffffffffffffffffffffffffffffff1673ffffffffffffffffffffffffffffffffffffffff16815260200190815260200160002082815481106114f7576114f6611f87565b5b9060005260206000200160000160009054906101000a900473ffffffffffffffffffffffffffffffffffffffff1673ffffffffffffffffffffffffffffffffffffffff16036115b8576001600460003373ffffffffffffffffffffffffffffffffffffffff1673ffffffffffffffffffffffffffffffffffffffff168152602001908152602001600020828154811061159357611592611f87565b5b9060005260206000200160000160146101000a81548160ff0219169083151502179055505b80806115c390611fe5565b915050611445565b50611762565b600460003373ffffffffffffffffffffffffffffffffffffffff1673ffffffffffffffffffffffffffffffffffffffff16815260200190815260200160002060405180604001604052808373ffffffffffffffffffffffffffffffffffffffff168152602001600115158152509080600181540180825580915050600190039060005260206000200160009091909190915060008201518160000160006101000a81548173ffffffffffffffffffffffffffffffffffffffff021916908373ffffffffffffffffffffffffffffffffffffffff16021790555060208201518160000160146101000a81548160ff02191690831515021790555050506001600660003373ffffffffffffffffffffffffffffffffffffffff1673ffffffffffffffffffffffffffffffffffffffff16815260200190815260200160002060008373ffffffffffffffffffffffffffffffffffffffff1673ffffffffffffffffffffffffffffffffffffffff16815260200190815260200160002060006101000a81548160ff0219169083151502179055505b50565b6000604051905090565b600080fd5b600080fd5b600073ffffffffffffffffffffffffffffffffffffffff82169050919050565b60006117a482611779565b9050919050565b6117b481611799565b81146117bf57600080fd5b50565b6000813590506117d1816117ab565b92915050565b6000602082840312156117ed576117ec61176f565b5b60006117fb848285016117c2565b91505092915050565b600081519050919050565b600082825260208201905092915050565b60005b8381101561183e578082015181840152602081019050611823565b60008484015250505050565b6000601f19601f8301169050919050565b600061186682611804565b611870818561180f565b9350611880818560208601611820565b6118898161184a565b840191505092915050565b600060208201905081810360008301526118ae818461185b565b905092915050565b600081519050919050565b600082825260208201905092915050565b6000819050602082019050919050565b6118eb81611799565b82525050565b60008115159050919050565b611906816118f1565b82525050565b60408201600082015161192260008501826118e2565b50602082015161193560208501826118fd565b50505050565b6000611947838361190c565b60408301905092915050565b6000602082019050919050565b600061196b826118b6565b61197581856118c1565b9350611980836118d2565b8060005b838110156119b1578151611998888261193b565b97506119a383611953565b925050600181019050611984565b5085935050505092915050565b600060208201905081810360008301526119d88184611960565b905092915050565b600080fd5b600080fd5b7f4e487b7100000000000000000000000000000000000000000000000000000000600052604160045260246000fd5b611a228261184a565b810181811067ffffffffffffffff82111715611a4157611a406119ea565b5b80604052505050565b6000611a54611765565b9050611a608282611a19565b919050565b600067ffffffffffffffff821115611a8057611a7f6119ea565b5b611a898261184a565b9050602081019050919050565b82818337600083830152505050565b6000611ab8611ab384611a65565b611a4a565b905082815260208101848484011115611ad457611ad36119e5565b5b611adf848285611a96565b509392505050565b600082601f830112611afc57611afb6119e0565b5b8135611b0c848260208601611aa5565b91505092915050565b60008060408385031215611b2c57611b2b61176f565b5b6000611b3a858286016117c2565b925050602083013567ffffffffffffffff811115611b5b57611b5a611774565b5b611b6785828601611ae7565b9150509250929050565b600081519050919050565b600082825260208201905092915050565b6000819050602082019050919050565b600082825260208201905092915050565b6000611bb982611804565b611bc38185611b9d565b9350611bd3818560208601611820565b611bdc8161184a565b840191505092915050565b6000611bf38383611bae565b905092915050565b6000602082019050919050565b6000611c1382611b71565b611c1d8185611b7c565b935083602082028501611c2f85611b8d565b8060005b85811015611c6b5784840389528151611c4c8582611be7565b9450611c5783611bfb565b925060208a01995050600181019050611c33565b50829750879550505050505092915050565b60006020820190508181036000830152611c978184611c08565b905092915050565b7f4e487b7100000000000000000000000000000000000000000000000000000000600052602260045260246000fd5b60006002820490506001821680611ce657607f821691505b602082108103611cf957611cf8611c9f565b5b50919050565b60008190508160005260206000209050919050565b60006020601f8301049050919050565b600082821b905092915050565b600060088302611d617fffffffffffffffffffffffffffffffffffffffffffffffffffffffffffffffff82611d24565b611d6b8683611d24565b95508019841693508086168417925050509392505050565b6000819050919050565b6000819050919050565b6000611db2611dad611da884611d83565b611d8d565b611d83565b9050919050565b6000819050919050565b611dcc83611d97565b611de0611dd882611db9565b848454611d31565b825550505050565b600090565b611df5611de8565b611e00818484611dc3565b505050565b5b81811015611e2457611e19600082611ded565b600181019050611e06565b5050565b601f821115611e6957611e3a81611cff565b611e4384611d14565b81016020851015611e52578190505b611e66611e5e85611d14565b830182611e05565b50505b505050565b600082821c905092915050565b6000611e8c60001984600802611e6e565b1980831691505092915050565b6000611ea58383611e7b565b9150826002028217905092915050565b611ebe82611804565b67ffffffffffffffff811115611ed757611ed66119ea565b5b611ee18254611cce565b611eec828285611e28565b600060209050601f831160018114611f1f5760008415611f0d578287015190505b611f178582611e99565b865550611f7f565b601f198416611f2d86611cff565b60005b82811015611f5557848901518255600182019150602085019450602081019050611f30565b86831015611f725784890151611f6e601f891682611e7b565b8355505b6001600288020188555050505b505050505050565b7f4e487b7100000000000000000000000000000000000000000000000000000000600052603260045260246000fd5b7f4e487b7100000000000000000000000000000000000000000000000000000000600052601160045260246000fd5b6000611ff082611d83565b91507fffffffffffffffffffffffffffffffffffffffffffffffffffffffffffffffff820361202257612021611fb6565b5b600182019050919050565b7f596f7520646f6e27742068617665206163636573730000000000000000000000600082015250565b600061206360158361180f565b915061206e8261202d565b602082019050919050565b6000602082019050818103600083015261209281612056565b905091905056fea26469706673582212204daeacffe3ebf069591345051a2be29bc63d1e88bde45ea17bc4eceaf8054fa964736f6c63430008110033",
  "immutableReferences": {},
  "source": "// SPDX-License-Identifier: MIT\n\npragma solidity ^0.8.0;\n\ncontract BlockCapsule {\n    struct access {\n        address user;\n        bool access;\n    }\n\n    mapping (address => bool) verified;\n\n    mapping (address => string[]) value;\n    mapping (address => mapping (address => bool)) viewOwnership;\n    mapping (address => mapping (address => bool)) editOwnership;\n    mapping (address => access[]) viewAccessList;\n    mapping (address => access[]) editAccessList;\n    mapping (address => mapping (address => bool)) viewPreviousData;\n    mapping (address => mapping (address => bool)) editPreviousData;\n\n    function add (address _user, string memory url) external {\n        value[_user].push(url);\n        verified[_user] = false;\n    }\n\n    function verify (address _user) external {\n        verified[_user] = true;\n    }\n    function isVerified (address _user) public view returns( string memory ) {\n        if (verified[_user])\n        {\n            return \"Yes\";\n        }\n        else{\n            return \"No\";\n        }\n    }\n\n    function allowView (address user) external {\n        viewOwnership[msg.sender][user] = true;\n        if (viewPreviousData[msg.sender][user]) {\n            for (uint i = 0; i < viewAccessList[msg.sender].length; i++) {\n                if (viewAccessList[msg.sender][i].user == user) {\n                    viewAccessList[msg.sender][i].access = true;\n                }\n            }\n        }\n        else {\n            viewAccessList[msg.sender].push(access(user,true));\n            viewPreviousData[msg.sender][user] = true;\n        }\n    }\n    function disAllowView (address user) public {\n        viewOwnership[msg.sender][user] = false;\n        for (uint i = 0; i < viewAccessList[msg.sender].length; i++) {\n            if (viewAccessList[msg.sender][i].user == user) {\n                viewAccessList[msg.sender][i].access = false;\n            }\n        }\n    }\n\n    function allowEdit (address user) external {\n        editOwnership[msg.sender][user] = true;\n        if (editPreviousData[msg.sender][user]) {\n            for (uint i = 0; i < editAccessList[msg.sender].length; i++) {\n                if (editAccessList[msg.sender][i].user == user) {\n                    editAccessList[msg.sender][i].access = true;\n                }\n            }\n        }\n        else {\n            editAccessList[msg.sender].push(access(user,true));\n            editPreviousData[msg.sender][user] = true;\n        }\n    }\n    function disAllowEdit (address user) public {\n        editOwnership[msg.sender][user] = false;\n        for (uint i = 0; i < editAccessList[msg.sender].length; i++) {\n            if (editAccessList[msg.sender][i].user == user) {\n                editAccessList[msg.sender][i].access = false;\n            }\n        }\n    }\n\n    function display (address _user) external view returns(string[] memory) {\n        require(_user == msg.sender || viewOwnership[_user][msg.sender], \"You don't have access\");\n        return value[_user];\n    }\n\n    function viewShareAccess() public view returns (access[] memory) {\n        return viewAccessList[msg.sender];\n    }\n    function editShareAccess() public view returns (access[] memory) {\n        return editAccessList[msg.sender];\n    }\n\n    function isEditAllowed(address _user) external view returns( string memory ) {\n        if (editOwnership[_user][msg.sender])\n        {\n            return \"Yes\";\n        }\n        else {\n            return \"No\";\n        }\n    }\n    function isViewAllowed(address _user) external view returns( string memory ) {\n        if (viewOwnership[_user][msg.sender])\n        {\n            return \"Yes\";\n        }\n        else {\n            return \"No\";\n        }\n    }\n}",
  "sourcePath": "D:\\Deepak\\Final year Project\\Implementation\\1\\sign-up-login-form copy\\contracts\\BlockCapsule.sol",
  "compiler": {
    "name": "solc",
    "version": "0.8.17+commit.8df45f5f.Emscripten.clang"
  },
  "schemaVersion": "3.4.11",
  "updatedAt": "2023-10-08T19:59:37.373Z",
  "networkType": "ethereum",
  "devdoc": {
    "kind": "dev",
    "methods": {},
    "version": 1
  },
  "userdoc": {
    "kind": "user",
    "methods": {},
    "version": 1
  }
}